{
  "_format": "hh-sol-artifact-1",
  "contractName": "Contract",
  "sourceName": "contracts/Contract.sol",
  "abi": [
    {
      "inputs": [
        {
          "internalType": "address",
          "name": "index",
          "type": "address"
        }
      ],
      "name": "getCustomer",
      "outputs": [
        {
          "components": [
            {
              "components": [
                {
                  "internalType": "string",
                  "name": "firstName",
                  "type": "string"
                },
                {
                  "internalType": "string",
                  "name": "lastName",
                  "type": "string"
                },
                {
                  "internalType": "string",
                  "name": "DOB",
                  "type": "string"
                },
                {
                  "internalType": "string",
                  "name": "emailAddress",
                  "type": "string"
                },
                {
                  "internalType": "string",
                  "name": "homeAddress",
                  "type": "string"
                },
                {
                  "internalType": "string",
                  "name": "pancNumber",
                  "type": "string"
                },
                {
                  "internalType": "string",
                  "name": "aadharcNumber",
                  "type": "string"
                }
              ],
              "internalType": "struct Contract.customerDetails",
              "name": "customer_details",
              "type": "tuple"
            },
            {
              "components": [
                {
                  "internalType": "string",
                  "name": "panCard",
                  "type": "string"
                },
                {
                  "internalType": "string",
                  "name": "aadharCard",
                  "type": "string"
                },
                {
                  "internalType": "string",
                  "name": "photograph",
                  "type": "string"
                },
                {
                  "internalType": "string",
                  "name": "signature",
                  "type": "string"
                }
              ],
              "internalType": "struct Contract.customerDocs",
              "name": "customer_docs",
              "type": "tuple"
            }
          ],
          "internalType": "struct Contract.Customer",
          "name": "",
          "type": "tuple"
        }
      ],
      "stateMutability": "view",
      "type": "function"
    },
    {
      "inputs": [
        {
          "internalType": "address",
          "name": "index",
          "type": "address"
        }
      ],
      "name": "getCustomerDetails",
      "outputs": [
        {
          "components": [
            {
              "internalType": "string",
              "name": "firstName",
              "type": "string"
            },
            {
              "internalType": "string",
              "name": "lastName",
              "type": "string"
            },
            {
              "internalType": "string",
              "name": "DOB",
              "type": "string"
            },
            {
              "internalType": "string",
              "name": "emailAddress",
              "type": "string"
            },
            {
              "internalType": "string",
              "name": "homeAddress",
              "type": "string"
            },
            {
              "internalType": "string",
              "name": "pancNumber",
              "type": "string"
            },
            {
              "internalType": "string",
              "name": "aadharcNumber",
              "type": "string"
            }
          ],
          "internalType": "struct Contract.customerDetails",
          "name": "",
          "type": "tuple"
        }
      ],
      "stateMutability": "view",
      "type": "function"
    },
    {
      "inputs": [
        {
          "internalType": "address",
          "name": "index",
          "type": "address"
        }
      ],
      "name": "getCustomerDocs",
      "outputs": [
        {
          "components": [
            {
              "internalType": "string",
              "name": "panCard",
              "type": "string"
            },
            {
              "internalType": "string",
              "name": "aadharCard",
              "type": "string"
            },
            {
              "internalType": "string",
              "name": "photograph",
              "type": "string"
            },
            {
              "internalType": "string",
              "name": "signature",
              "type": "string"
            }
          ],
          "internalType": "struct Contract.customerDocs",
          "name": "",
          "type": "tuple"
        }
      ],
      "stateMutability": "view",
      "type": "function"
    },
    {
      "inputs": [
        {
          "internalType": "string",
          "name": "_firstName",
          "type": "string"
        },
        {
          "internalType": "string",
          "name": "_lastName",
          "type": "string"
        },
        {
          "internalType": "string",
          "name": "_DOB",
          "type": "string"
        },
        {
          "internalType": "string",
          "name": "_emailAddress",
          "type": "string"
        },
        {
          "internalType": "string",
          "name": "_homeAddress",
          "type": "string"
        },
        {
          "internalType": "string",
          "name": "_pancNumber",
          "type": "string"
        },
        {
          "internalType": "string",
          "name": "_aadharcNumber",
          "type": "string"
        },
        {
          "internalType": "string",
          "name": "_panCard",
          "type": "string"
        },
        {
          "internalType": "string",
          "name": "_aadharCard",
          "type": "string"
        },
        {
          "internalType": "string",
          "name": "_photograph",
          "type": "string"
        },
        {
          "internalType": "string",
          "name": "_signature",
          "type": "string"
        }
      ],
      "name": "setCustomer",
      "outputs": [],
      "stateMutability": "nonpayable",
      "type": "function"
    }
  ],
  "bytecode": "0x608060405234801561001057600080fd5b506119f1806100206000396000f3fe608060405234801561001057600080fd5b506004361061004c5760003560e01c80630c60f83d1461005157806325cb1735146100815780638db4e2da1461009d578063cb949e51146100cd575b600080fd5b61006b60048036038101906100669190611292565b6100fd565b60405161007891906117ce565b60405180910390f35b61009b600480360381019061009691906112bb565b610556565b005b6100b760048036038101906100b29190611292565b61077e565b6040516100c491906117f0565b60405180910390f35b6100e760048036038101906100e29190611292565b610a21565b6040516100f491906117ac565b60405180910390f35b6101056110e7565b6000808373ffffffffffffffffffffffffffffffffffffffff1673ffffffffffffffffffffffffffffffffffffffff1681526020019081526020016000206000016040518060e001604052908160008201805461016190611903565b80601f016020809104026020016040519081016040528092919081815260200182805461018d90611903565b80156101da5780601f106101af576101008083540402835291602001916101da565b820191906000526020600020905b8154815290600101906020018083116101bd57829003601f168201915b505050505081526020016001820180546101f390611903565b80601f016020809104026020016040519081016040528092919081815260200182805461021f90611903565b801561026c5780601f106102415761010080835404028352916020019161026c565b820191906000526020600020905b81548152906001019060200180831161024f57829003601f168201915b5050505050815260200160028201805461028590611903565b80601f01602080910402602001604051908101604052809291908181526020018280546102b190611903565b80156102fe5780601f106102d3576101008083540402835291602001916102fe565b820191906000526020600020905b8154815290600101906020018083116102e157829003601f168201915b5050505050815260200160038201805461031790611903565b80601f016020809104026020016040519081016040528092919081815260200182805461034390611903565b80156103905780601f1061036557610100808354040283529160200191610390565b820191906000526020600020905b81548152906001019060200180831161037357829003601f168201915b505050505081526020016004820180546103a990611903565b80601f01602080910402602001604051908101604052809291908181526020018280546103d590611903565b80156104225780601f106103f757610100808354040283529160200191610422565b820191906000526020600020905b81548152906001019060200180831161040557829003601f168201915b5050505050815260200160058201805461043b90611903565b80601f016020809104026020016040519081016040528092919081815260200182805461046790611903565b80156104b45780601f10610489576101008083540402835291602001916104b4565b820191906000526020600020905b81548152906001019060200180831161049757829003601f168201915b505050505081526020016006820180546104cd90611903565b80601f01602080910402602001604051908101604052809291908181526020018280546104f990611903565b80156105465780601f1061051b57610100808354040283529160200191610546565b820191906000526020600020905b81548152906001019060200180831161052957829003601f168201915b5050505050815250509050919050565b6040518060e001604052808c81526020018b81526020018a8152602001898152602001888152602001878152602001868152506000803373ffffffffffffffffffffffffffffffffffffffff1673ffffffffffffffffffffffffffffffffffffffff16815260200190815260200160002060000160008201518160000190805190602001906105e6929190611124565b506020820151816001019080519060200190610603929190611124565b506040820151816002019080519060200190610620929190611124565b50606082015181600301908051906020019061063d929190611124565b50608082015181600401908051906020019061065a929190611124565b5060a0820151816005019080519060200190610677929190611124565b5060c0820151816006019080519060200190610694929190611124565b509050506040518060800160405280858152602001848152602001838152602001828152506000803373ffffffffffffffffffffffffffffffffffffffff1673ffffffffffffffffffffffffffffffffffffffff1681526020019081526020016000206007016000820151816000019080519060200190610716929190611124565b506020820151816001019080519060200190610733929190611124565b506040820151816002019080519060200190610750929190611124565b50606082015181600301908051906020019061076d929190611124565b509050505050505050505050505050565b6107866111aa565b6000808373ffffffffffffffffffffffffffffffffffffffff1673ffffffffffffffffffffffffffffffffffffffff1681526020019081526020016000206007016040518060800160405290816000820180546107e290611903565b80601f016020809104026020016040519081016040528092919081815260200182805461080e90611903565b801561085b5780601f106108305761010080835404028352916020019161085b565b820191906000526020600020905b81548152906001019060200180831161083e57829003601f168201915b5050505050815260200160018201805461087490611903565b80601f01602080910402602001604051908101604052809291908181526020018280546108a090611903565b80156108ed5780601f106108c2576101008083540402835291602001916108ed565b820191906000526020600020905b8154815290600101906020018083116108d057829003601f168201915b5050505050815260200160028201805461090690611903565b80601f016020809104026020016040519081016040528092919081815260200182805461093290611903565b801561097f5780601f106109545761010080835404028352916020019161097f565b820191906000526020600020905b81548152906001019060200180831161096257829003601f168201915b5050505050815260200160038201805461099890611903565b80601f01602080910402602001604051908101604052809291908181526020018280546109c490611903565b8015610a115780601f106109e657610100808354040283529160200191610a11565b820191906000526020600020905b8154815290600101906020018083116109f457829003601f168201915b5050505050815250509050919050565b610a296111d2565b6000808373ffffffffffffffffffffffffffffffffffffffff1673ffffffffffffffffffffffffffffffffffffffff168152602001908152602001600020604051806040016040529081600082016040518060e0016040529081600082018054610a9290611903565b80601f0160208091040260200160405190810160405280929190818152602001828054610abe90611903565b8015610b0b5780601f10610ae057610100808354040283529160200191610b0b565b820191906000526020600020905b815481529060010190602001808311610aee57829003601f168201915b50505050508152602001600182018054610b2490611903565b80601f0160208091040260200160405190810160405280929190818152602001828054610b5090611903565b8015610b9d5780601f10610b7257610100808354040283529160200191610b9d565b820191906000526020600020905b815481529060010190602001808311610b8057829003601f168201915b50505050508152602001600282018054610bb690611903565b80601f0160208091040260200160405190810160405280929190818152602001828054610be290611903565b8015610c2f5780601f10610c0457610100808354040283529160200191610c2f565b820191906000526020600020905b815481529060010190602001808311610c1257829003601f168201915b50505050508152602001600382018054610c4890611903565b80601f0160208091040260200160405190810160405280929190818152602001828054610c7490611903565b8015610cc15780601f10610c9657610100808354040283529160200191610cc1565b820191906000526020600020905b815481529060010190602001808311610ca457829003601f168201915b50505050508152602001600482018054610cda90611903565b80601f0160208091040260200160405190810160405280929190818152602001828054610d0690611903565b8015610d535780601f10610d2857610100808354040283529160200191610d53565b820191906000526020600020905b815481529060010190602001808311610d3657829003601f168201915b50505050508152602001600582018054610d6c90611903565b80601f0160208091040260200160405190810160405280929190818152602001828054610d9890611903565b8015610de55780601f10610dba57610100808354040283529160200191610de5565b820191906000526020600020905b815481529060010190602001808311610dc857829003601f168201915b50505050508152602001600682018054610dfe90611903565b80601f0160208091040260200160405190810160405280929190818152602001828054610e2a90611903565b8015610e775780601f10610e4c57610100808354040283529160200191610e77565b820191906000526020600020905b815481529060010190602001808311610e5a57829003601f168201915b505050505081525050815260200160078201604051806080016040529081600082018054610ea490611903565b80601f0160208091040260200160405190810160405280929190818152602001828054610ed090611903565b8015610f1d5780601f10610ef257610100808354040283529160200191610f1d565b820191906000526020600020905b815481529060010190602001808311610f0057829003601f168201915b50505050508152602001600182018054610f3690611903565b80601f0160208091040260200160405190810160405280929190818152602001828054610f6290611903565b8015610faf5780601f10610f8457610100808354040283529160200191610faf565b820191906000526020600020905b815481529060010190602001808311610f9257829003601f168201915b50505050508152602001600282018054610fc890611903565b80601f0160208091040260200160405190810160405280929190818152602001828054610ff490611903565b80156110415780601f1061101657610100808354040283529160200191611041565b820191906000526020600020905b81548152906001019060200180831161102457829003601f168201915b5050505050815260200160038201805461105a90611903565b80601f016020809104026020016040519081016040528092919081815260200182805461108690611903565b80156110d35780601f106110a8576101008083540402835291602001916110d3565b820191906000526020600020905b8154815290600101906020018083116110b657829003601f168201915b505050505081525050815250509050919050565b6040518060e00160405280606081526020016060815260200160608152602001606081526020016060815260200160608152602001606081525090565b82805461113090611903565b90600052602060002090601f0160209004810192826111525760008555611199565b82601f1061116b57805160ff1916838001178555611199565b82800160010185558215611199579182015b8281111561119857825182559160200191906001019061117d565b5b5090506111a691906111f8565b5090565b6040518060800160405280606081526020016060815260200160608152602001606081525090565b60405180604001604052806111e56110e7565b81526020016111f26111aa565b81525090565b5b808211156112115760008160009055506001016111f9565b5090565b600061122861122384611843565b611812565b90508281526020810184848401111561124057600080fd5b61124b8482856118c1565b509392505050565b600081359050611262816119a4565b92915050565b600082601f83011261127957600080fd5b8135611289848260208601611215565b91505092915050565b6000602082840312156112a457600080fd5b60006112b284828501611253565b91505092915050565b60008060008060008060008060008060006101608c8e0312156112dd57600080fd5b60008c013567ffffffffffffffff8111156112f757600080fd5b6113038e828f01611268565b9b505060208c013567ffffffffffffffff81111561132057600080fd5b61132c8e828f01611268565b9a505060408c013567ffffffffffffffff81111561134957600080fd5b6113558e828f01611268565b99505060608c013567ffffffffffffffff81111561137257600080fd5b61137e8e828f01611268565b98505060808c013567ffffffffffffffff81111561139b57600080fd5b6113a78e828f01611268565b97505060a08c013567ffffffffffffffff8111156113c457600080fd5b6113d08e828f01611268565b96505060c08c013567ffffffffffffffff8111156113ed57600080fd5b6113f98e828f01611268565b95505060e08c013567ffffffffffffffff81111561141657600080fd5b6114228e828f01611268565b9450506101008c013567ffffffffffffffff81111561144057600080fd5b61144c8e828f01611268565b9350506101208c013567ffffffffffffffff81111561146a57600080fd5b6114768e828f01611268565b9250506101408c013567ffffffffffffffff81111561149457600080fd5b6114a08e828f01611268565b9150509295989b509295989b9093969950565b60006114be82611873565b6114c8818561187e565b93506114d88185602086016118d0565b6114e181611993565b840191505092915050565b600060408301600083015184820360008601526115098282611530565b9150506020830151848203602086015261152382826116bc565b9150508091505092915050565b600060e083016000830151848203600086015261154d82826114b3565b9150506020830151848203602086015261156782826114b3565b9150506040830151848203604086015261158182826114b3565b9150506060830151848203606086015261159b82826114b3565b915050608083015184820360808601526115b582826114b3565b91505060a083015184820360a08601526115cf82826114b3565b91505060c083015184820360c08601526115e982826114b3565b9150508091505092915050565b600060e083016000830151848203600086015261161382826114b3565b9150506020830151848203602086015261162d82826114b3565b9150506040830151848203604086015261164782826114b3565b9150506060830151848203606086015261166182826114b3565b9150506080830151848203608086015261167b82826114b3565b91505060a083015184820360a086015261169582826114b3565b91505060c083015184820360c08601526116af82826114b3565b9150508091505092915050565b600060808301600083015184820360008601526116d982826114b3565b915050602083015184820360208601526116f382826114b3565b9150506040830151848203604086015261170d82826114b3565b9150506060830151848203606086015261172782826114b3565b9150508091505092915050565b6000608083016000830151848203600086015261175182826114b3565b9150506020830151848203602086015261176b82826114b3565b9150506040830151848203604086015261178582826114b3565b9150506060830151848203606086015261179f82826114b3565b9150508091505092915050565b600060208201905081810360008301526117c681846114ec565b905092915050565b600060208201905081810360008301526117e881846115f6565b905092915050565b6000602082019050818103600083015261180a8184611734565b905092915050565b6000604051905081810181811067ffffffffffffffff8211171561183957611838611964565b5b8060405250919050565b600067ffffffffffffffff82111561185e5761185d611964565b5b601f19601f8301169050602081019050919050565b600081519050919050565b600082825260208201905092915050565b600061189a826118a1565b9050919050565b600073ffffffffffffffffffffffffffffffffffffffff82169050919050565b82818337600083830152505050565b60005b838110156118ee5780820151818401526020810190506118d3565b838111156118fd576000848401525b50505050565b6000600282049050600182168061191b57607f821691505b6020821081141561192f5761192e611935565b5b50919050565b7f4e487b7100000000000000000000000000000000000000000000000000000000600052602260045260246000fd5b7f4e487b7100000000000000000000000000000000000000000000000000000000600052604160045260246000fd5b6000601f19601f8301169050919050565b6119ad8161188f565b81146119b857600080fd5b5056fea26469706673582212203f6101f11326a93c78c693c4276c87dae1225306ebd419fbc283ef2a776d043d64736f6c63430008000033",
  "linkReferences": {},
  "deployedLinkReferences": {}
}